:020000040800F2
:1000000028D201209D010008AB3900081B320008EE
:10001000A93900080F05000815730008000000004A
:10002000000000000000000000000000B14F0008C8
:10003000E505000800000000B93B0008B1560008C3
:10004000B7010008B7010008B7010008B7010008B0
:10005000B7010008B7010008B7010008B7010008A0
:10006000B7010008B7010008B7010008B701000890
:10007000B7010008B7010008B7010008B701000880
:1000800051050008B7010008B7010008B7010008D2
:10009000B7010008B7010008B7010008B701000860
:1000A000B7010008B7010008B7010008B701000850
:1000B000B7010008B7010008B7010008B701000840
:1000C000B7010008B7010008B7010008B701000830
:1000D000B70100080D5D0008195D0008B7010008B0
:1000E000B7010008B7010008B7010008B701000810
:1000F000B7010008B7010008B7010008B701000800
:10010000B7010008B7010008B7010008B7010008EF
:10011000B7010008B7010008B7010008B7010008DF
:10012000B7010008B70100085D050008B701000825
:10013000B7010008B7010008B7010008B7010008BF
:10014000B7010008B7010008B7010008AD39000881
:10015000B7010008B7010008B7010008B70100089F
:10016000B7010008B7010008B7010008B70100088F
:10017000B7010008B7010008B7010008000000003F
:10018000B7010008B7010008DFF80CD000F082F9D1
:10019000004800471DB7000828D2012006488047C4
:1001A00006480047FEE7FEE7FEE7FEE7FEE7FEE75C
:1001B000FEE7FEE7FEE7FEE76D570008890100084D
:1001C0002DE9F05F0546002092469B46884606468C
:1001D000814640241BE0284641464746224600F01F
:1001E000EBF853465A46C01A914110D311461846AF
:1001F000224600F0D2F82D1A67EB01084F4622463E
:100200000120002100F0C9F817EB00094E41201E23
:10021000A4F10104DFDC484631462A464346BDE8E6
:10022000F09F40EA01039B0703D009E008C9121FB1
:1002300008C0042AFAD203E011F8013B00F8013BA0
:10024000521EF9D27047D2B201E000F8012B491ECC
:10025000FBD270470022F6E710B513460A46044663
:100260001946FFF7F0FF204610BD2DE9FE4F81EA49
:10027000030404F0004421F0004100944FF0000B0F
:1002800023F0004350EA01045ED052EA03045BD03D
:10029000C3F30A54C1F30A552C44A4F2F334019475
:1002A000A0FB0254C1F3130141F48011C3F3130303
:1002B00043F4801301FB024400FB034E840A970AB7
:1002C00044EA815447EA8357A4FB076802958D0AE4
:1002D00005FB07854FEA932C04FB0C542705029D70
:1002E0004FEA065847EA1637B5EB08056EEB070CE0
:1002F000870E920E47EA811742EA8312A7FB02019A
:10030000B6EB0B0164EB00042B0D43EA0C335E18D3
:1003100044EB1C50DA465146E7FB0201C5F31304D7
:100320004FEA0B3343EA14534FEA0432019C43EA89
:100330000603A4F10C040294009CCDE900B400F083
:100340005AF803B0BDE8F08F00200146F9E70EB57A
:1003500040F2334102910021CDE900110A460B46DB
:1003600000F049F803B000BDC1F30A5210B5C1F363
:10037000130140F2FF3341F480119A4201DA002068
:1003800010BD40F233439A42A2F2334203DC5242A0
:1003900000F012F810BD904010BD202A04DB203A76
:1003A00000FA02F1002070479140C2F1200320FAC8
:1003B00003F3194390407047202A04DB203A21FAC6
:1003C00002F00021704721FA02F3D040C2F120026E
:1003D000914008431946704710B5141E73F100048C
:1003E00008DA401C41F1000192185B411A4301D127
:1003F00020F0010010BD2DE9F04D92469B4611B151
:10040000B1FA81F202E0B0FA80F220329046FFF7B2
:10041000C4FF04460F4640EA0A0041EA0B01534676
:100420005A46084313D0114653EA010019D0C8F1C7
:1004300040025046FFF7C0FF05460E46504659465B
:100440004246FFF7AAFF084305D0012004E02046FA
:100450003946BDE8F08D0020054346EAE0762C439E
:1004600037430A986305E40AA0EB08000022FD0A5E
:1004700044EA47540A3002D500200146E9E7010565
:1004800010196941DDE9084500196941BDE8F04DE1
:10049000A2E70000064C074D06E0E06840F00103CB
:1004A00094E8070098471034AC42F6D3FFF770FE8B
:1004B000E47F01080480010870B58C1810F8015B16
:1004C00015F0070301D110F8013B2A1106D110F8ED
:1004D000012B03E010F8016B01F8016B5B1EF9D1F1
:1004E0002B0705D40023521E0DD401F8013BFAE777
:1004F00010F8013BCB1A921C03E013F8015B01F8E2
:10050000015B521EF9D5A142D8D3002070BDFEE791
:100510000D4882B0002101704170192242600172C1
:10052000642242818181012201610275417507487F
:10053000016841F002010160006800F002000090D3
:1005400002B003F0F1BA000010CC012030380240B4
:10055000014800F0C9B80000BCB20120014800F019
:10056000C3B800005CB2012001681823CAB2103A77
:10057000B2FBF3F2054B6FF30901032A9B5CC365E1
:1005800000D9091D8165084670470000A07D01085B
:1005900010B5014600208B698A6A4FF0C07453B1D0
:1005A000B3F5005F15D072B1012A0CD0022A0AD02F
:1005B000032A09D104E01AB1012A06D0022A03D184
:1005C000C96AC90100D5012010BDC96AA142FAD08B
:1005D00010BD002AF7D0012AF2D0022AF3D0032A54
:1005E000F3D010BD704772B6FEE7000070B5B3F5EA
:1005F000804F05D06FF0704140F82210002070BD90
:1006000050F82240084B8E891C40D1E9003543EA5E
:1006100005138D6889692D0245EA06452B430B4376
:10062000234340F82230E9E70000F0CFF0B50C6832
:1006300050F82430114A1340D1E90125D1E903676C
:100640002A433E4332434E6932438E693243CE6978
:1006500032430E6A32434E6A32438E6A3243CE6A66
:100660003243CE6B096B32430A431A43082D01D142
:1006700042F0400240F824200020F0BD8000F0FF4E
:1006800030B500EB820250688D8900F04043D1E91B
:10069000000440EA04108C68240244EA0544204324
:1006A0000C8A074D05EB045420430C7D6D0105EBCE
:1006B000046489692043084318435060002030BD1A
:1006C0000000F0FF90F83510022903D08021416529
:1006D00001207047052180F835100068016821F07D
:1006E00001010160002070472DE9F84304464FF0F6
:1006F0000009CDF8009063484FF41651A56D0068CD
:10070000B0FBF1F72E6894F85C10082000FA01F1B4
:1007100031420FD021680A6852070BD50A6822F0CF
:1007200004020A6094F85C108840A860606D40F094
:100730000100606594F85C104FF0010808FA01F0C0
:10074000304208D021684969090604D5A860606D67
:1007500040F00200606594F85C100420884030424C
:1007600008D021680968890704D5A860606D40F049
:100770000400606594F85C1010208840304218D066
:1007800021680968090714D5A86020680168490331
:1007900004D50068000308D5A16C07E00168C9050D
:1007A00003D4016821F008010160216C09B12046E1
:1007B000884794F85C1020208840304231D021686E
:1007C0000968C9062DD5A86094F835000528206869
:1007D000016806D0490347D5006800031DD4616C49
:1007E0001CE021F0160101602068416921F08001C0
:1007F0004161206C08B9A06C20B12068016821F02B
:100800000801016094F85C103F208840A86084F8DB
:10081000349084F83580216D1FE0E16B09B12046EA
:100820008847606D00282BD0606DC00714D005206C
:1008300084F835002068016821F00101016000980A
:10084000401C0090B84203D820680068C007F6D169
:1008500084F8349084F83580E16C002910D001B020
:100860002046BDE8F04308470168C905D5D40168B2
:1008700021F01001016084F8349084F83580CCE7D1
:10088000BDE8F883940100202DE9F041044600F012
:1008900097F906465CB1002584F83450022084F8AC
:1008A00035002068016821F0010101600DE00120A0
:1008B000BDE8F08100F084F9801B052805D92020CF
:1008C0006065032084F83500F2E720680068C007FF
:1008D000F0D12268116820480140D4E9010318438F
:1008E000D4E903363343184363691843A3691843B3
:1008F000E3691843236A18430843616A042903D152
:10090000D4E90B1319430843106020684069666AF4
:1009100020F0070130460E43012704280CD1A06ABD
:100920000643E06A40B12046FFF732FE20B1402086
:10093000606584F83570BAE7206846612046FFF7A5
:1009400013FE94F85C203F2191408160656584F836
:1009500035700020ACE700003F8010F070B5044611
:1009600000F02EF90546601C02D0044800780444CB
:1009700000F026F9401BA042FAD370BD8801002088
:10098000F0B587B014216846FFF764FC154801688C
:10099000002924D10121016013480024016841F09D
:1009A000010101600068022500F0010005904FF68A
:1009B000C070CDE9000502AA03260C2782E8D0000A
:1009C00069460A4800F016F84CF2B370CDE900050C
:1009D00002AA694682E8D000054800F00BF807B08B
:1009E000F0BD000020000020383802400010024016
:1009F000000C02402DE9F84F00224FF001080325BA
:100A00004FF00F0E0B6808FA02F42340A3426ED198
:100A10004E68012E05D0022E03D0112E01D0122EC9
:100A200012D186684FEA420C05FA0CF7BE43CF6834
:100A300007FA0CF7374387604668A6430C79C4F37E
:100A40000014944034434460C668570005FA07FC1C
:100A50008C6826EA0C06BC403443C4604C68022C07
:100A600001D0122C13D1D40800EB8404A346D4F88F
:100A7000209054074FEAD46A0EFA0AF629EA0609CA
:100A80000E6906FA0AF646EA0906CBF820600668FF
:100A90000C7926EA0C0604F00304BC4034430460DD
:100AA0004C68E40065D5364C266846F480462660DE
:100AB000246822F0030604F480440094314C34444A
:100AC000A446D4F808489607370F0EFA07F6B44341
:100AD0002D4EB04201D1002624E02C4EB04201D16F
:100AE00001261FE02A4EB04202D102261AE040E061
:100AF000284EB04201D1032614E0274EB04201D166
:100B000004260FE0254EB04201D105260AE0244E0E
:100B1000B04201D1062605E0224EB04201D107269F
:100B200000E00826BE402643CCF808681E4E346814
:100B30004F689C43FF0300D51C4334601A4C241DAE
:100B400026684F689E43BF0300D51E432660164E9D
:100B5000083634684F689C43FF0200D51C4334605C
:100B6000114E0C3634684F689C43BF0200D51C43BD
:100B70003460521C102AFFF445AFBDE8F88F000026
:100B800044380240003001400000024000040240AE
:100B900000080240000C0240001002400014024015
:100BA00000180240001C0240003C0140006908405F
:100BB00000D0012070470AB1816170470904FBE74A
:100BC0000148806870470000880100200248816861
:100BD0000278114481607047880100200B4810B5ED
:100BE000016841F400710160016841F480610160B5
:100BF000016841F480710160032000F06FF800206B
:100C000000F006F800F024F8002010BD003C02407F
:100C100070B50D4D04464FF47A712878B1FBF0F0B1
:100C20000A490968B1FBF0F001F076FF48B9102CD1
:100C300007D200222146501E00F030F800206C60E0
:100C400070BD012070BD00008801002094010020CB
:100C50000A4808B5016841F480410160006800F469
:100C6000804000900548001F016841F080510160FC
:100C7000006800F08050009008BD00004438024039
:100C8000002809DB00F01F0201219140400980008B
:100C900000F1E020C0F8001170470000F0B40E4BE6
:100CA0001B680C46C3F30223C3F10705042D00D9CA
:100CB0000425191D072901D2002300E0DB1E0126AF
:100CC00006FA05F1491E214099409E40761E1640C5
:100CD0003143F0BC06F094BC0CED00E0064900F096
:100CE000070208684FF6FF03184040EA0220034A53
:100CF00010430860704700000CED00E00000FA05AA
:100D000070470068416200207047F0B50368586A78
:100D100039B19C6A4FF4827600EB144400204D1EDA
:100D20000AE040EA024098620FE006EB8007DF59D4
:100D3000401C04EB1744C0B2A842F6D344EA024078
:100D40004FF4807202EB810158500020F0BDD0F8C2
:100D5000040405F0FAB9C1EBC10200EB8202D0F83D
:100D60000404926C05F065B9C1EBC10200EB82028C
:100D7000D0F80404D2F8082205F0B0B9D0F8040481
:100D800005F0E5B970B504460B0601F00F00C0EBA5
:100D9000C00104EB81014FF001024FF0000503D5C3
:100DA00081F83D203C3103E081F8FD5101F5FE71F1
:100DB000087094F8BC03012808D084F8BC2320688C
:100DC00005F040FE84F8BC53002070BD022070BDC9
:100DD00070B5044601F00F006268904201D901200D
:100DE00070BD0B0601F00F01C1EBC10104EB8101E5
:100DF0004FF001024FF0000503D581F83D203C3152
:100E000003E081F8FD5101F5FE718D70087094F8D2
:100E1000BC03012808D084F8BC23206806F00CF835
:100E200084F8BC53002070BD022070BD10B504468C
:100E300090F8BC0301280AD0012084F8BC030806FE
:100E400007D501F00F01206806F058F904E00220F0
:100E500010BD206806F042F9002084F8BC0310BDE4
:100E600001F00F01C1EBC10100EB8100D0F81402C9
:100E700070472DE9F04104460F0601F00F00C0EB6A
:100E8000C00104EB81014FF001064FF0000503D5CE
:100E900081F83D603C3103E081F8FD5101F5FE71C0
:100EA00008708A60CB704A7802B1C880022B00D1EA
:100EB0000D7194F8BC03012809D084F8BC63206844
:100EC00005F01CFD284684F8BC53BDE8F0810220E3
:100ED000FBE770B50C4601F00F05C5EBC50100EB53
:100EE0008101C1F81032C1F808220023C1F8143280
:100EF00081F8FD3181F8FC51036901F5FE71012B88
:100F000000D10A612207027C006803D005F0ECFFE3
:100F1000002070BD05F0D8FEFAE770B504460D4616
:100F200001F00F006168884201D9012070BD2906D7
:100F30004FF000064FF0010207D5C0EBC00104EBF3
:100F4000810181F83D203C3107E0C5EBC50104EB90
:100F5000810181F8FD6101F5FE718A70087094F8D5
:100F6000BC03012807D084F8BC23206805F090FF5B
:100F7000280702D007E0022070BD217C04F57172C1
:100F8000206805F02DFF84F8BC63002070BD70B5AB
:100F90000C4601F00F05C5EBC50100EB81010B65A7
:100FA0008A6400234B65012381F83D3001F83C5FE2
:100FB0000369012B00D10A612207027C006803D07B
:100FC00005F092FF002070BD05F07EFEFAE70000FC
:100FD0002DE9FC5F05680446284606F0AEF80028B7
:100FE0007ED1206806F0D5F8002879D0206806F078
:100FF000D0F8800704D52168486900F002004861F4
:10100000206806F0C6F8C10604F57170009034D56A
:101010002068816921F0100181612F6A07F00F00BB
:10102000C0EBC00004EB8006C7F3434006F5FE7634
:10103000022802D0062811D01AE047F6F0700742C5
:1010400016D0C7F30A1217462846F16806F0A5F82D
:10105000F0683844F060B069384408E00822284657
:10106000009906F09AF8B069C7F30A110844B06114
:101070002068816941F010018161206806F089F8DB
:1010800000034FF0010A4FF0080B5BD500262068E3
:1010900006F05EF80746DFF8689351E0F8074DD098
:1010A000F1B2206806F06DF88046C00707D005EB66
:1010B0004611C1F808AB3146204602F07DFC5FEADC
:1010C000087022D505EB4611C1F808BB2068016CF9
:1010D00000EB46100191D0F8082B494507D900E0F4
:1010E0008BE1110403D54FF40041C0F8081B2046E2
:1010F00000F076FA0198484507D92069012804D103
:1011000020680121009A05F06BFE5FEAC86004D5F3
:1011100005EB46111020C1F8080B5FEA886004D582
:1011200005EB46112020C1F8080B5FEA884005D581
:1011300005EB46104FF40051C0F8081B7F08761CE1
:10114000002FABD1206806F024F840034FF00009CF
:101150005CD5206805F0F5FF0746002654E0F80747
:1011600050D0F1B2206805F0FAFF8046C00723D0C6
:1011700006F00F020AFA02F0D5F834288243C5F8C7
:10118000342805EB4610C0F808A9206901280FD1C2
:10119000C6EBC60004EB8000D0E911211144816444
:1011A00036B9206D20B920680121009A05F018FE9B
:1011B000F1B22046FFF7CFFD5FEA087003D505EBDB
:1011C0004611C1F808B95FEAC86004D505EB4611BD
:1011D0001020C1F808095FEA486004D505EB461104
:1011E0004020C1F808095FEA887004D505EB461174
:1011F0000220C1F808095FEA086003D5314620469D
:1012000002F040FC7F08761C002FA8D1206805F072
:10121000C0FF002811DAD5F8040820F00100C5F855
:10122000040894F8F403012829D0204600F0BCF902
:101230002068416901F000414161206805F0A9FF83
:1012400000050BD5D5F80808C00702D0204600F0ED
:10125000EFF92068416901F400614161206805F0FF
:1012600098FFC00468D5D5F8040820F00100C5F83F
:1012700004081021206805F041FF002127E084F8D0
:10128000F49300212046FFF73BFDD1E705EB411029
:101290004FF67F32C0F80829D0F8003923F4001344
:1012A000C0F80039D0F8003943F00063C0F80039C5
:1012B000C0F8082BD0F8002B22F40012C0F8002B45
:1012C000D0F8002B42F00062C0F8002B491C606887
:1012D0008842DBD8D5F81C0840F00110C5F81C087E
:1012E000206B60B1D5F8840840F00B00C5F8840885
:1012F000D5F8440840F00B00C5F844080CE0D5F8D8
:10130000141842F22B000143C5F81418D5F8100840
:1013100040F00B00C5F81008D5F8000820F4FE6076
:10132000C5F80008217C2068009A05F059FD206866
:10133000416901F480514161206805F02AFF800471
:1013400015D5206805F01AFB206805F0E9FEE0607D
:1013500000F0BEFA0146227B206805F055FF2046CA
:1013600000F00CF92068416901F4005141612068E6
:1013700005F00FFF000707D5204600F019F9206897
:10138000416901F008014161206805F002FFC002D7
:1013900008D50021204600F035F82068416901F4A5
:1013A00080114161206805F0F4FE800208D500211B
:1013B000204600F02BF82068416901F400114161DA
:1013C000206805F0E6FE400007D52046FFF7BFFC89
:1013D0002068416901F080414161206805F0D9FE33
:1013E00040070AD520684568680702D52046FFF700
:1013F000C5FC2068416829434160BDE8FC9F0000AE
:101400000A30544FD0F8040404F0FABED0F80404B3
:1014100004F0F8BE2DE9F0418AB0040005D094F83C
:10142000BD032668002520B108E001200AB0BDE810
:10143000F08184F8BC53204600F05EF8032084F865
:10144000BD03F06BC00500D42561206805F036FCB3
:1014500004F11001282288466846FEF7E2FE94E86F
:101460000F0005F099FA0226C8BB0021206805F09C
:10147000A2FE002001270EE0C0EBC00104EB8101B9
:1014800081F83D7001F83C0FC880CD708D60CD6053
:10149000401CC0B24D6161688142EDD8002011E06E
:1014A000C0EBC00104EB810181F8FD5181F8FC0122
:1014B00081F8FF51C1F80452C1F80852401CC0B273
:1014C000C1F8105261688142EAD828224146684634
:1014D000FEF7A7FE94E80F0005F036FB10B184F884
:1014E000BD63A2E784F8385084F8BD73206805F026
:1014F0001DFB00209AE7000010B586B004461421B9
:101500006846FEF7A7FE2068B0F1A04F2FD119481A
:101510000021026842F001020260006800F0010050
:1015200005904FF4C05000900220CDE90101032046
:1015300003900A20049069460F48FFF75BFA0D48B4
:10154000001D016841F0800101600A481430016803
:1015500041F4804101600068002200F48040059061
:1015600011464320FFF79AFB4320FFF789FB06B0A3
:1015700010BD0000303802400000024070B5044643
:10158000C068012570B1022801D0FFF72CF8294668
:10159000D4F8040404F08CFED4F80404BDE87040D0
:1015A00004F047BE0025F2E7D0F8040404F06ABE58
:1015B000D0F8040404F070BE10B5044690F8BC03E3
:1015C00001280BD0012084F8BC0384F8381020686F
:1015D00005F008FE002084F8BC0310BD022010BDF9
:1015E000D0F8042400F57171104604F06DBE10B5FA
:1015F0000446006894F8BC13012906D0012184F840
:10160000BC13A16A012902D008E0022010BDA16923
:10161000012903D0816B41F480318163206805F09A
:1016200057FD206805F074FA002084F8BC0310BD53
:1016300010B50446D0F8040404F088FE2068D0F801
:10164000001E41F00101C0F8001E206A002804D0ED
:101650000248016841F00601016010BD10ED00E094
:101660002DE9F843054600684FF00109C1074FF026
:10167000000601D1400727D5DFF80C81C8F8686063
:10168000FFF79EFA0746414C05E000BFFFF798FAC6
:10169000C01B022857D820680001F7D46868810170
:1016A000287A41EA0070394984310860C8F86890A6
:1016B000FFF786FA074604E0FFF782FAC01B02280C
:1016C00041D820680001F7D52878800752D52F48E7
:1016D0004030016841F08051016000682C4C00F0FE
:1016E00080500090206840F480702060FFF768FA16
:1016F000074604E0FFF764FAC01B022823D82068DD
:10170000C005F7D5214C7034206810F4407020D00B
:10171000A98901F4407181421BD020681D4920F441
:101720004070C1F800900E6020602068C00710D0A3
:10173000FFF746FA064641F2883707E0FFF740FA1E
:10174000801BB84202D90320BDE8F88320688007D7
:10175000F4D5E9680D48C1F301220830032A0BD003
:10176000016821F4F81101602068A989C1F30B0117
:10177000084320600020E7E70268074B22F4F812D4
:1017800019400A430260EFE7000047420038024078
:1017900000700040400E4742FFFCFF0F2DE9F0476C
:1017A0000E46050065D0DFF81481D8F80000F7B2C6
:1017B00000F00F00B04207D288F80070D8F800009F
:1017C00000F00F00B04254D128683D4C810712D57B
:1017D000400703D5206840F4E050206028780007D7
:1017E00003D5206840F4604020602068A96820F09C
:1017F000F000084320602878C0072DD03049686881
:101800000839012812D0022813D0032811D0096802
:10181000890700292DDA216821F0030101432160A5
:10182000FFF7CEF9814641F2883A0EE00968890354
:10183000EFE709688901ECE7FFF7C2F9A0EB0901BE
:10184000514502D90320BDE8F0872068696800F09F
:101850000C00B0EB810FEFD1D8F80010404601F03A
:101860000F01B14207D90770006800F00F00B042C5
:1018700001D00120E7E72878400705D52068E9680E
:1018800020F4E050084320602878000706D520683F
:10189000296920F4604040EAC100206000F03EF871
:1018A0002168084AC1F30311515CC8400649086029
:1018B00006480068FFF7ACF90020C4E7003C02408E
:1018C00008380240A87D0108940100208C01002006
:1018D0000148006870470000940100200448054951
:1018E00000680968044AC1F38221515CC84070470E
:1018F0009401002008380240B87D010804480549D9
:1019000000680968044AC1F34231515CC84070471D
:101910009401002008380240B87D0108154810B530
:10192000006810F00C02144813D04110042A0FD0A4
:10193000082A0ED10F4C241F2268236802F03F02B0
:101940005B0207D52068C0F38810A0FB010106E008
:10195000084610BD2168C1F38811A1FB00010023D6
:10196000FEF72EFC2168C1F30141491C4900B0FB80
:10197000F1F010BD083802400024F4002DE9F84FC2
:1019800004006ED02078DFF83C93C007A9F104056D
:101990004AD009F104000168C1F38101012908D08E
:1019A0000068C0F3810002280AD1D9F80000400283
:1019B00006D52868800337D560680028E1D033E079
:1019C0006068B0F5803F10D0B0F5A02F286810D027
:1019D00020F480302860286820F480202860606827
:1019E000A8B1FFF7EDF806460DE0286840F4803016
:1019F000F4E740F480202860F7E700BFFFF7E0F845
:101A0000801B642873D828688003F7D50CE0FFF7A3
:101A1000D7F8064605E000BFFFF7D2F8801B642820
:101A2000F0D828688003F7D42078DFF89C828007FC
:101A30004FF0000A3ED5A348001D016811F00C0FBD
:101A400008D00068C0F3810002280BD1D9F800004B
:101A5000400207D42868800716D5E068012800D125
:101A600012E02BE1E068B8B10120C8F80000FFF7F0
:101A7000A7F8064605E000BFFFF7A2F8801B022882
:101A8000C0D828688007F7D52868216920F0F800B9
:101A900040EAC10028600DE0C8F800A0FFF790F808
:101AA000064604E0FFF78CF8801B02281FD8286840
:101AB0008007F7D42078000722D5824E83486169D9
:101AC000703671B101210160FFF77AF8074604E032
:101AD000FFF776F8C01B022809D830688007F7D5D1
:101AE0000EE0C0F800A0FFF76BF8074605E082E0C3
:101AF000FFF766F8C01B02287DD830688007F7D44E
:101B00002078400768D5DFF8BCB100270BF13C0B0B
:101B1000DBF80000C0000BD4DBF8001041F080516E
:101B2000CBF80010DBF80000012700F08050009097
:101B3000674E3068C00510D4306840F48070306063
:101B4000FFF73EF8009005E0FFF73AF80099401AD9
:101B5000022850D83068C005F6D55A4EA0686C36B9
:101B600001280FD00528306810D020F00100306027
:101B7000306820F004003060A068B8B1FFF720F8AA
:101B800000900FE0306840F00100F4E740F00400FE
:101B90003060F7E7FFF714F80099411A41F28830F6
:101BA000814266D830688007F4D50EE0FFF708F868
:101BB000009007E0FFF704F80099411A41F28830DD
:101BC000814256D830688007F4D42FB1DBF800107A
:101BD00021F08051CBF80010A069C8B33949091D24
:101BE0000968C1F3810102294AD00228504607D072
:101BF000C8F8600000E03CE0FEF7E2FF04463BE08E
:101C00004746C8F86000FEF7DBFF064605E000BF68
:101C1000FEF7D6FF801B02282BD828688001F7D456
:101C2000D4E907010843A16A2A4A490802EB0141A5
:101C3000626A41EA8211084394F82C1040EA01617B
:101C4000C9F8001001203866FEF7BAFF044606E026
:101C500036E000BFFEF7B4FF001B022809D8286851
:101C60008001F7D52CE000BFFEF7AAFF001B022879
:101C700002D90320BDE8F88F28688001F4D41FE062
:101C80000128F7D0D9F80000E26900F48001914200
:101C900014D1226A00F03F0191420FD147F6C07182
:101CA000626A0140914209D1A26A00F44031914236
:101CB00004D1E16A00F07060884201D00120D9E7C8
:101CC0000020D7E70438024000004742800E474218
:101CD000007000400000FFFF70B5040003D0607981
:101CE000002510B105E0012070BD2571204600F0EF
:101CF0000DF8022060712068016841F00401016064
:101D000001206071A560002070BD000008B500686A
:101D10000649884208D10648016841F04001016047
:101D2000006800F04000009008BD00000008065068
:101D30003438024070B5040002D0607F10B106E074
:101D4000012070BD00202077204600F049F80220D5
:101D500060772168CA204862216853204862204683
:101D600001F036FFFF25042618BB206881681B4A56
:101D7000114081602168886862681043D4E90423B7
:101D80001A43104388602168E0680861206801698F
:101D9000228941EA024101612068C16821F0800185
:101DA000C16020688068800607D4204600F0FEF8F5
:101DB00018B1206845626677C2E72068016C21F49B
:101DC000802101642068016CA269114301642068CC
:101DD000456201206077002070BD0000BFFF8FFFCB
:101DE00000680349884202D1024901200860704717
:101DF000002800403C0E47422DE9F0470446007F92
:101E00000B4601281FD04FF0010984F81C900220D6
:101E10006077DAB19878D97840EA0145587819782E
:101E2000000240EA413005432168CA204862216827
:101E300053204862204601F0CBFE0026FF274FF0DA
:101E4000040860BB1AE00220BDE8F0875878C1069C
:101E500003D500F0EF000A305870D87801F0ADFEDD
:101E60000204587801F0A9FE42EA0022987801F0B5
:101E7000A4FE0243187842EA4035D5E70F480540F2
:101E8000206845602068C16821F08001C160206839
:101E9000806880060AD4204600F088F830B12068B7
:101EA000476284F81D8026770120CDE720684762CD
:101EB00084F81D9026770020C6E700003FFFFF0052
:101EC0002DE9F0470446007F0D46012827D04FF04A
:101ED000010A84F81CA00220607720680026806830
:101EE0004FEA4060F2B1002800DBEE70A878297854
:101EF00040EA01476878E978000240EA0140074378
:101F00002168CA204862216853204862204601F0B7
:101F10005FFE4FF0FF084FF00409A0BB16E002205F
:101F2000BDE8F087002800DBEE70287801F045FE60
:101F30000204687801F041FE42EA0022A87801F02C
:101F40003CFE0243E87842EA0047D9E716480740DA
:101F5000206807602068816821F480218160D5E9CC
:101F60000301084321688A68104388602068C168BB
:101F700021F08001C1602068806880060BD4204673
:101F800000F014F838B12168C1F8248084F81D905D
:101F900026770120C4E72168C1F8248084F81DA0B9
:101FA00026770020BCE700007F7F7F0070B50446E5
:101FB0000068C16821F0A001C160FEF701FE05467E
:101FC0004FF47A7607E000BFFEF7FAFD401BB042FF
:101FD00001D9032070BD2068C0688006F4D50020B8
:101FE00070BD00002DE9FE43044603200F4684F82F
:101FF0003400606C03285AD0B7F5805F57D04FF497
:10200000006600254FF08068B7421CD1009501950D
:102010000021206802F053FA800121D4694620464D
:1020200002F074FD98BB0198400332D5B4F850001B
:102030000104206802F078FA48BB0221206822E0FF
:10204000A06B284327E01FB1A06B40F0006022E0A6
:10205000009501950021206802F031FA800101D538
:102060003546EDE76946204602F050FD78B9019803
:10207000C0030ED5B4F850000104206802F054FAF1
:1020800028B90021206802F09CFA0028D8D0054623
:10209000D6E74546D4E7A063A06B012558B1216877
:1020A0000C48886384F834500120BDE8FE83A06B9F
:1020B00040F08050EFE7211DD4E905060EC90097D6
:1020C000CDE90106206802F0FDF984F834500020C3
:1020D000EBE70000FF05400050F8742F120E0A7065
:1020E0000268120A4A8002784368120642EA132202
:1020F0004A6002790A728268120E4A728268C36864
:10210000120242EA1362CA60C268C2F303520A743E
:10211000C268C2F30B224A82007BC0F346000875F6
:102120000120487500207047F0B5426E920F0A708A
:10213000426EC2F383624A70426EC2F301628A70D9
:10214000426E120CCA70B0F86420120A0A7190F83C
:1021500064204A71826E120DCA80826EC2F30342FD
:102160000A72B0F86820C2F3C0324A72B0F8682030
:10217000C2F380328A72B0F86820C2F34032CA7269
:10218000B0F86820C2F300320A7300264E73426C26
:102190004FF40075012462B1012A3AD00268474920
:1021A0009163816B41F08051816380F8344001205C
:1021B000F0BDB0F86820C36E9205120D42EA93722A
:1021C0000A61C26EC2F3C2620A75C26EC2F30262D3
:1021D0004A75C26EC2F342528A75C26EC2F382421F
:1021E000CA75C26EC2F3C2320A760A69521C4265CF
:1021F0000B7E03F007039B1C9A4042650B7A03F0A9
:102200000F0704FA07F383655B0A5A43C0E91725F1
:102210000EE090F86820C36E9206920A42EA1342DA
:102220000A610A69521C92024265C0E916520566AB
:1022300030F86C2FC2F3803201F8192F0288C2F3F4
:10224000C6124A70027802F07F028A704268D20F8A
:10225000CA704268C2F341720A714268C2F3826274
:102260004A714268C2F383528A714268C2F3405293
:10227000CA710E724268C2F300424A728288C2F387
:10228000C0328A728288C2F38032CA728288C2F3F4
:1022900040320A738288C2F300324A738288C2F3E2
:1022A00081228A738288C2F30122CA730079C0F343
:1022B000460008744C740020F0BD0000FF0540008B
:1022C000426C0A60826C4A60C26C8A60026DCA60AD
:1022D000426D0A61826D4A61C26D8A61006EC86199
:1022E0000020704770B50446B0F850000025010486
:1022F000206802F070FA18B1A16B0143A16304E0F9
:102300000021206802F0DBF80546C5F3432070BDCC
:1023100070B504000ED094F83400002518B9257764
:10232000204600F03BF8032084F83400204600F0FB
:102330000BF808B1012070BDA5632563012084F866
:102340003400002070BD0000FEB500250446762054
:102350000095CDE9015029460B460A46206802F057
:10236000B1F808B10120FEBD0B4E46F8A05F206811
:1023700002F0BAF801253560204602F0BBFC20B916
:10238000204602F03FFC0028EDD084F83450A16BC9
:102390000143A163E6E7000000802542F0B587B065
:1023A000044614216846FDF755FF1D492068884200
:1023B00033D11C480024016841F4006101600068C9
:1023C00000F40060059017481438016841F00401DA
:1023D0000160016801F004010591016841F0080104
:1023E00001600068022500F0080005904FF4F850E5
:1023F000CDE9000502AA03260C2782E8D000694631
:102400000948FEF7F7FA0420CDE9000502AA69465B
:1024100082E8D0000548FEF7EDFA07B0F0BD0000F5
:10242000002C01404438024000080240000C0240E9
:102430002DE9F04F87B09B4616460D460446FEF741
:10244000BFFB00903DB194F83400012807D0A06B89
:1024500040F000500DE0A06B40F0006009E0002764
:10246000A763E16D06EB0B00884204D9A06B40F036
:102470000070A06395E0032084F834002068C762F0
:10248000606C012800D076024FF40071206802F0E1
:102490007FF8DFF890A1012140B12368C3F838A08C
:1024A000A26B0243A26384F834107AE04FF0FF304D
:1024B00001904FEA4B200290902003900220CDE93A
:1024C000040706918846B94601A9206801F0E1FF9A
:1024D000BBF1010F06D9022020633146206802F0CB
:1024E000EBF805E0C4F830803146206802F0FDF8D2
:1024F00030B12268C2F838A0A16B0143A1634CE05F
:10250000029E1EE0406B000413D596B100272068A0
:1025100001F0F2FF05F8010B010A05F8011B010C9F
:1025200005F8021B000E361F7F1C05F8010C082F52
:10253000EDD3FEF745FB0099411A109881421DD258
:10254000E0B12068426B40F22A310A42DAD0416B96
:10255000C90509D5BBF1010F06D9616C032903D068
:1025600002F06AF90028C4D12068416B09071AD526
:10257000C0F838A0A06B40F0080051E02168C1F815
:1025800038A0A06B40F00040A06384F83480C4F809
:102590003090032007B0BDE8F08F84F83480C4F891
:1025A00030900120F6E7416B890705D5C0F838A0C7
:1025B000A06B40F0020033E0416B89061CD5C0F8E7
:1025C00038A0A06B40F020002AE000BF01F094FF8B
:1025D00005F8010B010A05F8011B010C05F8021BA7
:1025E000000E05F8010C361FFEF7EAFA0099411AB1
:1025F000109881420ED268B12068416B890201D5E2
:10260000002EE3D1216840F23A50886384F8348088
:102610000020BFE72168C1F838A0A06B40F000405F
:10262000A063BAE7FF0540002DE9FF4F8DB01646C5
:102630000D460446FEF7C4FA0B903DB194F8340001
:10264000012807D0A06B40F000500DE0A06B40F0D7
:10265000006009E00027A7631098E16D30448842CC
:1026600004D9A06B40F00070A0638BE0032084F8D5
:1026700034002068C762606C012800D076024FF4F5
:102680000071206801F084FFDFF864B1012140B1DE
:102690002368C3F838B0A26B0243A26384F83410F5
:1026A00070E04FF0FF30039010988946400204908C
:1026B0009020CDE90507CDE90771BA4603A9206846
:1026C00001F0E7FE1098012806D92020206331464A
:1026D000206802F0CBF805E0102020633146206826
:1026E00002F0DDF85FEA000806D02168C1F838B0D2
:1026F000A06B40EA080071E0049E27E0406B4004B4
:102700001CD5DEB15FF0000715F8010B009015F83D
:10271000011B361F40EA0120009015F8021B40EA19
:102720000140009015F8011C40EA016000906946E4
:10273000206801F0F4FE7F1C082FE5D3FEF740FA75
:102740000B99411A1A98814220D2F8B12068416B46
:1027500040F21A321142D1D0416BC90523D51099EC
:10276000012920D9616C03291DD002F065F8D0B190
:102770002268C2F838B0A16B0143A16384F8349099
:10278000C4F830A0012011B0BDE8F08F2168C1F875
:1027900038B0A06B40EA0800A06384F83490C4F815
:1027A00030A00320EFE72068416B090705D5C0F88A
:1027B00038B0A06B40F0080010E0416B890705D5E8
:1027C000C0F838B0A06B40F0020007E0416BC906CA
:1027D00006D5C0F838B0A06B40F01000A063CDE77C
:1027E00040F23A51816384F834900020CBE7000036
:1027F000FF05400070B5040005D00025A56294F8DF
:10280000510010B106E0012070BD84F85050204600
:1028100000F030F8022084F851002068016821F0AF
:1028200040010160D4E901010843D4E903121143D6
:10283000084361690843218B01F400710843E16991
:102840000843216A0843A16A084321680860A06917
:10285000042101EA1040616A084321684860206849
:10286000C16921F40061C1616565012084F85100EE
:10287000002070BD10B586B0044614216846FDF7EF
:10288000E9FC13492068884220D1124800210268DF
:1028900042F480520260006800F4805005900D48B8
:1028A0001438026842F001020260006800F0010082
:1028B0000590E02000900220CDE901010320039063
:1028C0000520049069460448FEF794F806B010BD50
:1028D0000030014044380240000002402DE9F84F2A
:1028E000044690F8500000270A9E1D4692468B46EB
:1028F0004FF0010901280ED0012084F85000FEF7A6
:102900005FF9804694F85100616801280CD0B1F558
:10291000827F07D102E00220BDE8F88FA16809B9E3
:10292000042801D00227C2E0BBF1000F27D0BAF182
:10293000000F24D01DB394F85100042802D00520C4
:1029400084F8510000206065C4F838A0E587A587A9
:10295000C4F830B0E586A58620646064206801680C
:10296000490603D4016841F040010160E068B0F518
:10297000006F606805D0E8B3012D46D07FE00127E5
:1029800095E008B1012D39D1206B21680088C8601D
:10299000206B801C2063E08E401EE0862EE02068C5
:1029A000816889070FD5E18E69B1B9F1010F0AD1AC
:1029B000216B0988C160206B801C2063E08E401E63
:1029C000E0864FF0000920688168C9070CD0E18FCC
:1029D00051B1C068A16B0880A06B801CA063E08F20
:1029E000401EE0874FF00109FEF7EAF8A0EB08006F
:1029F000B04200E009E001D3701C50D1E08E002805
:102A0000CDD1E08F0028CAD13FE0206B216800784B
:102A10000873206B401C2063E08E401EE0862EE091
:102A20002068816889070FD5E18E69B1B9F1010F7E
:102A30000AD1216B09780173206B401C2063E08E62
:102A4000401EE0864FF0000920688168C9070CD05D
:102A5000E18F51B1C068A16B0870A06B401CA063EE
:102A6000E08F401EE0874FF00109FEF7A9F8A0EBC8
:102A70000800B04202D3701C01D010E07EB1E08E9D
:102A80000028CDD1E08F0028CAD1424631462046E9
:102A900002F0F0F928B101272020606507E0032744
:102AA00005E0A06818B92068C1688068009001201E
:102AB00084F85100002084F8500038462CE770B5A7
:102AC00015460E46040003D094F8490010B107E003
:102AD000012070BD002084F84800204600F01AF85C
:102AE00004F108012068FDF7A1FD3146A2682068C5
:102AF000FDF7C6FDD4E901022946236BFDF776FDFB
:102B0000A168206850F8212042F0010240F82120FD
:102B1000002070BDFDF734BF10B5401EB0F1807FBE
:102B200001D3012010BD4FF0E02460610F21601738
:102B300004F066FD0020A06107202061002010BD88
:102B400070B590F83C20012A32D0012480F83C4036
:102B5000022280F83D2003685A689D6822F07006C2
:102B60000A6832435A60134B02689A4214D0B2F199
:102B7000804F11D0104B9A420ED0104B9A420BD07E
:102B80000F4B9A4208D00F4B9A4205D00E4B9A42F7
:102B900002D00E4B9A4204D1496825F080031943B4
:102BA000916080F83D40002180F83C10084670BDDF
:102BB000022070BD000001400004004000080040F9
:102BC000000C00400004014000400140001800409B
:102BD00010B5040003D094F83D0010B107E00120C7
:102BE00010BD002084F83C00204600F00DF80220C3
:102BF00084F83D00211D206802F0C6FD012084F804
:102C00003D00002010BD000008B50068064988425C
:102C100008D10648016841F002010160006800F037
:102C20000200009008BD000000040040403802404F
:102C300070B5044690F83C00012817D0012584F8AF
:102C40003C50022084F83D002068826822F0770220
:102C500022F47F4282600868502830D00DDC2028A2
:102C60004DD005DC98B310283BD148E0022070BD60
:102C7000302844D0402834D139E0602828D070284A
:102C800006D0B0F5805F2CD0B0F5005F29D10AE006
:102C9000CB68D1E90121206802F0E7FD2068816856
:102CA00041F0770109E0CB68D1E90121206802F009
:102CB000DCFD2068816841F48041816011E0CA68D0
:102CC0004968206802F0A6FE5021206807E016E05F
:102CD000CA684968206802F0AEFE6021206802F0F0
:102CE000CEFD84F83D50002084F83C0070BDCA68D9
:102CF0004968206802F08EFE40212068EFE72268D4
:102D000001461046EBE7000010B586B004461421DA
:102D10006846FDF79FFA0D492068884214D10C4897
:102D20000021026842F002020260006800F0020026
:102D30000590102000900220CDE90101CDE903109B
:102D400069460448FDF756FE06B010BD0004004079
:102D5000303802400004024070B5044690F83C0050
:102D60000D4601280DD0012684F83C60022084F82D
:102D70003D0042B1042A18D0082A2AD00C2A4DD18D
:102D800039E0022070BD206802F082FD2068816970
:102D900041F0080181612068816921F004018161AD
:102DA000206881692A69114311E0206802F0A0FDC2
:102DB0002068816941F4006181612068816921F4A2
:102DC00080618161206881692A6941EA022181610B
:102DD00024E0206802F0C2FD2068C16941F00801CA
:102DE000C1612068C16921F00401C1612068C16925
:102DF0002A69114311E0206802F0E4FD2068C169EE
:102E000041F40061C1612068C16921F48061C16140
:102E10002068C1692A6941EA0221C16184F83D60E4
:102E2000002084F83C0070BD10B5040003D094F875
:102E30003D0010B107E0012010BD002084F83C00E7
:102E4000204600F00CF8022084F83D00211D206887
:102E500002F09AFC012084F83D00002010BD70476C
:102E600010B504460068012202F0F2FC0B4920680C
:102E7000884202D00A49884203D1416C41F40041A2
:102E800041642068816801F00701062903D00168C8
:102E900041F001010160002010BD00000000014070
:102EA000000401407047000070B5026804461068D5
:102EB000D168536910F00F0F52D003F0010501F4EF
:102EC00090762E435FD0C20705D0CA0503D5E26BCA
:102ED00042F00102E263420705D5DA0703D0E26B54
:102EE00042F00202E263820705D5DA0703D0E26B03
:102EF00042F00402E263020707D501F020022A43F0
:102F000003D0E26B42F00802E263E26B002A33D0A6
:102F1000800604D5880602D5204602F0B4FD20685C
:102F20004069E16BC0F38010090700D428B3204644
:102F300002F09BFD2068416949061AD5416921F0DC
:102F400040014161606BA0B11B490165606BFDF7F9
:102F5000B9FB002810D0606B016DBDE870400847D8
:102F6000830610D58B060ED52046BDE8704002F0D2
:102F70008ABD2046FFF796FF70BD2046FFF792FFFF
:102F80000020E06370BD030606D50B0604D520467D
:102F9000BDE8704002F056BE4006F3D54806F1D5B4
:102FA000D168204621F04001D160202184F83910F9
:102FB00000F032F970BD00005B5A000870B50400E3
:102FC00004D094F83900002510B106E0012070BD4E
:102FD00084F83850204600F023F8242084F8390083
:102FE0002068C16821F40051C160204602F096FDBE
:102FF0002068016921F4904101612068416921F054
:103000002A0141612068C16841F40051C160E56353
:10301000202084F8390084F83A00002070BD0000B8
:103020002DE9F04387B0064614216846FDF712F9F2
:10303000DFF80C8102223168002442480323424D0C
:1030400097064FF0070C4FF48069414537D13D4951
:103050001431D1F8008048F01008C1F800800968E8
:1030600001F010010591016841F001010160006863
:10307000694600F00100059058028DE81500CDE981
:10308000033C2846FDF7B6FC314D30482860C5E9C1
:103090000174C5E903496C61AC61EC612C6228469E
:1030A0006C62FDF7F1FB08B1FDF79DFA7563002234
:1030B00011462520AE63FDF7F1FD25203BE0DFF84A
:1030C0009480414539D11F491031D1F8008048F42E
:1030D0000038C1F80080096801F4003105910168E9
:1030E00041F0010101600068694600F001000590AF
:1030F0000C208DE81500CDE9033C2846FDF77AFC4D
:10310000134D154860352860C5E90174C5E90349C8
:103110006C61AC61EC612C6228466C62FDF7B4FB1B
:1031200008B1FDF760FA7563002211462620AE63F0
:10313000FDF7B4FD2620FDF7A3FD07B0BDE8F08341
:10314000001001403038024000000240406402405C
:103150005CB20120004400408860024070472DE9C5
:10316000F843044690F839001F4616460D462028BD
:1031700050D1B5B1AEB194F8380001284AD0012041
:1031800084F838004FF00008C4F83C80212084F80F
:103190003900FDF715FDA6848146E68484F8388061
:1031A00026E00120BDE8F883E08C401EE084A068A2
:1031B0004B46B0F5805F4FF000024FF08001204693
:1031C000009703D002F06FFDE8B90DE002F06BFD4F
:1031D000C8B928882168C0F308004860206908B190
:1031E0006D1C05E0AD1C03E0216815F8010B48607B
:1031F000E08C0028D8D14B46002240212046009781
:1032000002F051FD08B10320CCE7202084F83900FA
:103210000020C7E70220C5E77047FEE7104810B559
:103220000E490160002141608160C160016141611E
:103230008161FFF76DF808B1012010BD4FF4006106
:103240000748FEF7CFFE08B1022010BD044904482C
:103250008431FFF735F8002010BD0000002C01403C
:10326000A0B00120F0B500230A24302537261F46E0
:1032700011E000BFB4EB107F02D905EB107C01E038
:1032800006EB107C01F813C001EB430C00015B1C42
:103290008CF80170DBB29342ECD3F0BD1CB508F0A2
:1032A00013FF00281BD09E208DF80000E7208DF82A
:1032B00001006946102002F0D3F908F005FF00284C
:1032C0000DD000208DF800006946082002F0C8F9F2
:1032D00001A9002008F088FE012800D000201CBDB4
:1032E00070B5D0F8BC42054694F81C0240B9D4F839
:1032F000180228B1607A18B90121284603F014F8A1
:103300008121284603F010F8607A022809D1812132
:10331000284603F009F82846BDE87040012103F073
:1033200003B870BD70B5D0F8BC4205460121D4F891
:103330001402C4F83402D4F81802C4F8380228463B
:1033400002F01AFF1F280DD12849D4F81002884234
:1033500008D194F81D12012904D894F81E0208B16E
:10336000102809D994F81D1220230522284600F0C0
:103370009AFF0220607209E004F21F22284600F042
:103380008FFC0028207A08DA052804D02846BDE8FA
:103390007040FFF7A5BF012121E0022824D00128B9
:1033A00022D0032820D0E668C6B1D5F8BC12284642
:1033B00004F11002D1F81832B34200D33346D1F8E9
:1033C0003842A41BC1F83842002481F83C4204244E
:1033D0000C72BDE87040812102F0C1BF0021284677
:1033E000BDE8704000F09CB870BD000055534243EA
:1033F00010B50446D0F8BC02407A022809D009066C
:1034000011D501280FD02046BDE81040012100F061
:1034100087B88121204602F087FF2046BDE8104092
:10342000012102F081BF10BD10B5D0F8BC220446C6
:10343000107A022805D0032801D0042810D10021D9
:1034400009E092F81D12204602F21F2200F028FC2B
:10345000002805DA01212046BDE8104000F060B8E0
:1034600010BD10B5D0F8BC220446107A80B10128F6
:1034700013D192F81D12204602F21F2200F010FC18
:1034800000280ADA2046BDE81040012100F048B8C3
:103490002046BDE81040FFF745BF10BDD0F8BC0284
:1034A00000210172704770B5D0F8BC42002105467A
:1034B0002172617284F8611284F8601284F86212D9
:1034C000D0F8C0020168002088470121284602F098
:1034D0004AFE8121284602F046FE04F50472284681
:1034E000BDE870401F23012102F09ABE70B5D0F8EC
:1034F000BC420546002020720120607281212846CE
:1035000002F085FD0121284602F081FD04F50472D8
:103510002846BDE870401F23012102F081BE000053
:1035200070B5D0F8BC4205460B48C4F8300284F8A8
:103530003C12002020720D2304F50C7281212846D4
:1035400002F00DFF04F504722846BDE870401F2309
:10355000012102F065BE000055534253114808B5E1
:10356000016841F400110160016801F4001100914B
:10357000016841F4800101600068002200F48000CD
:10358000009011461020FDF789FB1020FDF778FB15
:10359000002211463A20FDF781FBBDE808403A20A1
:1035A000FDF76EBB303802402DE9F04F87B0142193
:1035B0006846FCF74FFE60480024016841F01001A6
:1035C0000160016801F010010591016841F080017E
:1035D0000160016801F080010591016841F004017A
:1035E0000160016801F004010591016841F00101E9
:1035F0000160016801F001010591016841F00201DB
:103600000160016801F002010591016841F00801C3
:1036100001600068DFF824A100F008000590002296
:1036200041215046FDF7C7FADFF814B148F2100700
:10363000012239465846FDF7BEFA012240F6E44120
:103640004048FDF7B8FA002241F208213D48FDF755
:10365000B2FA4FF46158002241463B48FDF7ABFAFD
:103660004FF48079002249465846FDF7A4FA3820E5
:1036700001258DE8310069463448FDF7BBF941204A
:103680000326CDE90005CDE9024669465046FDF71F
:10369000B1F900970396CDE9015469465846FDF704
:1036A000A9F9302002278DE8910069465046FDF7C0
:1036B000A1F9CDE90064694622480297FDF79AF91D
:1036C00040F66C40CDE90005CDE9024669461D484B
:1036D000FDF790F94FF490500090CDE90154694600
:1036E00018480394FDF786F94FF46140CDE90004D2
:1036F000694614480294FDF77DF9CDF800800396E1
:10370000CDE9015469461048FDF774F9CDF80090F1
:10371000CDE90154694658460394FDF76BF98020C2
:10372000CDE90005CDE9025669460648FDF762F984
:1037300007B0BDE8F08F00003038024000080240BA
:103740000000024000040240000C02400010024051
:10375000074910B5054808600846FEF7BDFA00287D
:1037600003D0BDE81040FCF73EBF10BD0008065076
:1037700070B0012010B586B014216846FCF76AFDD0
:103780001B48002419490594C0E900147F21816079
:10379000FF21C0E9031444618461FEF7CBFA08B14C
:1037A000FCF721FF8DF800408DF801408DF80240B4
:1037B0000394012269460E480494FEF781FB08B188
:1037C000FCF711FF01208DF814008DF815008DF81D
:1037D000160002468DF8174005A90548FEF70CFBB8
:1037E000002801D0FCF7FFFE06B010BD0028004005
:1037F00080B00120104810B50E4901604FF482716D
:103800004160002102228160C0E90312012242616D
:10381000520282610822C0E90721416281620A21C5
:10382000C162FEF7E7FF002803D0BDE81040FCF7B7
:10383000DABE10BD0030014044B1012030B58DB07A
:1038400000240794089409940A940B941C21684658
:103850000C94FCF7FFFC224D2048C5E9000441F21E
:103860008730C5E902402C612846AC61FFF7B0F90A
:1038700008B1FCF7B8FE4FF48050079007A918482C
:10388000FFF7D6F908B1FCF7AEFE1548FFF7CCFA02
:1038900008B1FCF7A8FE0B940BA911480C94FFF794
:1038A0004FF908B1FCF79FFE602000904B2001907B
:1038B0000220029004200490002269460848FFF785
:1038C0004BFA08B1FCF78FFE2868816921F00801E6
:1038D00081610348FFF718FA0DB030BD00040040C5
:1038E0009CB101200C4810B50A4901604FF4E13148
:1038F0004160002181600C22C160C0E90412816135
:10390000C161FFF75BFB002803D0BDE81040FCF766
:103910006ABE10BD00100140DCB101200C4810B59A
:103920000A4901604FF4E1314160002181600C22BD
:10393000C160C0E904128161C161FFF73FFB00284B
:1039400003D0BDE81040FCF74EBE10BD004400405F
:103950001CB2012010B500220F49104802F03DFBB7
:1039600008B1FCF740FE0E490C4802F0F1FD08B129
:10397000FCF739FE0B49094802F067FD08B1FCF776
:1039800032FE064802F05EFE002803D0BDE810407B
:10399000FCF729BE10BD00009801002038C30120AB
:1039A0000C020020E8010020FEE7FEE70148FDF7D9
:1039B0000FBB000008C801202DE9F04103680D4647
:1039C00004461E6C03EB4511D1F8080BD4F810E047
:1039D0004FF400474FF0200C04F57172BEF1010F57
:1039E00009D0DFF898E0764539D1020432D500BF1E
:1039F000C1F8087B3FE0224B5FEA007E04D59E427F
:103A000039D90004F4D436E05FEA806E02D5C1F8FB
:103A100008CB30E010F0280F2DD19E4201D90004D0
:103A2000E6D4C5EBC50004EB8000D1F8101BD0F83C
:103A30000432C1F31201591AC0F81412D0F8081256
:103A40001944C0F8081295B9D4F8100278B90121C8
:103A500020680AE080060AD5C1F808CB07E035B92E
:103A6000D4F8100218B90021184603F0B9F9E9B2E8
:103A70002046FDF779F90020BDE8F0810A31544F66
:103A80000A30544F2DE9F84F0E46C1EBC60100EB4A
:103A9000810481460568D4E914103C34884202D977
:103AA0000120BDE8F88F081AA168814200D20846BB
:103AB000C01C870805EB46181BE000BFA0EB010AFD
:103AC000A068504500D282460AF10300870899F8A1
:103AD000100000901FFA8AF3F2B22846E16803F062
:103AE00007FCE16801EB0A00E060A16901EB0A0054
:103AF000A061D8F8180980B2B84205D3D4E905010D
:103B0000814201D20028D9D1D4E90501884208D8E0
:103B100006F00F0101208840D5F834188143C5F81C
:103B200034180020BDE7000000B585B014216846B8
:103B3000FCF790FB4FF4C0400090002001900290F1
:103B400069460248FCF756FF05B000BD000402407C
:103B500030B5164C87B04FF4C04525601421684637
:103B6000FCF778FB12480021026842F00202026072
:103B70000068009500F0020005900120CDE90101E8
:103B800003200390094869461838FCF733FFA01456
:103B900000900220029069460648FCF72BFF4FF484
:103BA000005020604000206007B030BD1804024083
:103BB00030380240000C02407047002102E00A3811
:103BC000C0B2491C0A28FAD2090740EA11607047BE
:103BD00070B504460068C168490614D44FF0FF313F
:103BE000C160FCF7EDFF05464FF47A7607E000BFB1
:103BF000FCF7E6FF401BB04201D9032070BD2068EE
:103C0000C0684006F4D5002070BD10B5D0F8BC42A5
:103C10001A44D4F868329A4206D92123052200F0CA
:103C200042FB4FF0FF3010BD002010BD70B50446C0
:103C3000D0F8BC0213464FF0FF35D0F818227AB105
:103C40005A78D20716D0997871B180290FD090F8A0
:103C50001D1224230522204600F025FB284670BDB6
:103C600090F81D122023F5E706220B490FE00822E9
:103C70000A490CE0D4F8C02201EBC1011B79D269DA
:103C800002EB81010A79521D934200D81A4600F0D6
:103C90002AFB002070BD0000AE020020B40200200C
:103CA0002DE9F04713780025D0F8BC424FF0FF36DD
:103CB0004FF00208252B72D00FDC1A2B74D005DCD4
:103CC00013B3032B45D0122B17D146E01B2B48D042
:103CD0001E2B5ED0232B10D180E05A2B6DD006DC3A
:103CE000282B76D02A2B75D02F2B06D192E09E2B35
:103CF0007CD0A82B70D0AA2B6FD02023052200F0F7
:103D0000D2FA84F809801EE00746D4F818028846E3
:103D100028B1202394F81D12052238467FE094F83C
:103D200062024FF00509022810D0D7F8C00281685E
:103D30004046884740B33A2302224146384600F0C5
:103D4000B2FA84F808903046BDE8F0873A230222A0
:103D5000F4E7BDE8F04700F069BABDE8F047FFF7C7
:103D600065BF94F86232012B04D1137903F0030389
:103D7000022B52D0117901F00300012811D0022842
:103D800004D0C84380070CD0E56020E084F862824C
:103D9000FAE7107928B1012084F86202F4E721E003
:103DA00002E084F86252EFE7127917212046172AC1
:103DB00000D811460A46204907E0117A1B23204605
:103DC0001B2900D80B461A461C4900F08CFA2846DD
:103DD000BAE70FE016E009E010E017E0BDE8F047B1
:103DE00000F0EDB9BDE8F04700F071B9BDE8F0476B
:103DF00000F09CB9BDE8F04700F0BEB8BDE8F04760
:103E000000F00EB9BDE8F04700F079BABDE8F04720
:103E100000F0D7BA5278920704D52423052200F087
:103E200042FA90E7D4E99B23FFF7EFFE00288ADBF4
:103E30002846E56088E70000BC020020D30200208D
:103E40002DE9F041D0F8BC4206460F46B4F86402B2
:103E5000D4F870524FF4007145438D4200D30D46A3
:103E6000B5FBF0F083B2D6F8C00204F11001D4F82B
:103E70006C22D0F810C088463846E047002809DA9E
:103E8000112304223946304600F00DFA4FF0FF307E
:103E9000BDE8F0812B4642468121304602F05FFAB0
:103EA000B4F86402D4F86C22B5FBF0F1B5FBF0F085
:103EB0001144C4F86C12D4F87012081AC4F87002D5
:103EC000D4F83812A1EB0501C4F8381201D103204F
:103ED00020720020DCE72DE9F047D0F8BC4207460D
:103EE0004FF40075B4F86402D4F870628846464313
:103EF000AE4200D32E46B6FBF0F083B2D7F8C00234
:103F000004F11001D4F86C22D0F814C08946404660
:103F1000E047002809DA032304224146384600F02E
:103F2000C2F94FF0FF30BDE8F087B4F86402D4F86E
:103F30006C22B6FBF0F11144C4F86C12B6FBF0F140
:103F4000D4F87022531AC4F87032D4F83812A1EBA6
:103F50000601C4F838120AD04343AB4200D32B46C3
:103F60004A460121384602F05BF90020DBE70021D8
:103F70003846FFF7D5FAF8E72DE9F041D0F8BC4212
:103F800006461546207A884680BB94F81C024FF0FE
:103F9000FF37000634D594F86202022809D0D6F81B
:103FA000C00281684046884748B13A230222414610
:103FB00001E03A230222304600F075F913E0D5F80B
:103FC0000200414600BA20F0FF0268790243C4F8BB
:103FD0006C22B5F8070043BA3046C4F87032FFF7D8
:103FE00014FE002803DA3846BDE8F0810FE0B4F88B
:103FF0006412D4F870024843D4F81812884204D0EE
:10400000202394F81D120522D5E7022020724FF4D8
:104010000070E06041463046BDE8F041FFF710BF58
:104020002DE9F041D0F8BC4206461546207A884674
:1040300098BB94F81C024FF0FF37000637D594F870
:104040006202022809D0D6F8C0028168404688473B
:1040500048B13A230222414601E03A230222304687
:1040600000F021F916E055F8020F414600BA20F0A1
:10407000FF02E8780243C4F86C22686800BA20F0B6
:10408000FF03E87903433046C4F87032FFF7BDFD03
:10409000002803DA3846BDE8F0810FE0B4F8641276
:1040A000D4F870024843D4F81812884204D0202370
:1040B00094F81D120522D2E7022020724FF40070FE
:1040C000E06041463046BDE8F041FFF7B9BE70B54B
:1040D00005460E46D5E9AF4004F519724368111D37
:1040E00030469847C8B994F86202022815D0D4F82F
:1040F0006802401E010E2174010C6174010AA17452
:10410000E074002020756075B4F86402010AA1759E
:10411000E0750820E060002070BD3A23022231469D
:10412000284600F0C0F84FF0FF3070BD2DE9F04197
:1041300006461546D6E9AF400F4604F519724368A6
:10414000111D3846984770B994F8620202280AD0C7
:10415000D5F80A00697B00BA20F0FF000843E06050
:10416000002001460DE03A2302223946304600F095
:104170009AF84FF0FF30BDE8F0812218401C11740E
:10418000C0B2E2688242F8D8D4F86802401E020E3B
:104190002275020C6275020AA275E07521766176BD
:1041A000B4F86402010AA176E076D5F80A00697BCA
:1041B00000BA20F0FF000843E0600020DBE77CB598
:1041C00005460E46D5E9AF406A46436801A9304628
:1041D000984710BB94F8620202281ED000200146C6
:1041E0002218401C80B211740C28F9D30820E07406
:1041F0000198401E020E2275020C6275020AA27519
:10420000E075022020766176BDF80000010AA176F3
:10421000E0760C20E06000207CBD3A23022231468B
:10422000284600F040F84FF0FF307CBD30B5D0F8A4
:10423000BC12D1F818321BB3002004460B18401CE6
:10424000C0B21C741228F9D3702008740C20C875F1
:1042500091F8600291F8613298421CD001EBC003E2
:10426000401C93F840528D7493F844520D7793F8A4
:104270004532C0B24B7781F86002042809D00AE0C9
:1042800091F81D122023052200F00DF84FF0FF30A9
:1042900030BD81F860421220C8601079122800D821
:1042A000C860002030BDD0F8BC0290F8611200EB6D
:1042B000C10181F8402290F8611200EBC10181F840
:1042C000443290F86122002100EBC20282F84512CC
:1042D00090F86122521CD2B280F86122042A01D1E6
:1042E00080F86112704710B5C26004E0521E92B2AD
:1042F00084188B5C2374002AF8D1002010BD2DE9AE
:10430000F041D0F8BC4205461746207A884620B1D5
:104310002846BDE8F041FFF7DEBDD4F818024FF0A3
:10432000FF3680B394F81C02000636D4D5F8C002DC
:1043300081684046884728B13A230AE02846FFF7BB
:10434000B2FF1DE0D5F8C002C1684046884718B1E9
:10435000272302224146F1E7D7F80200414600BA7E
:1043600020F0FF0278790243C4F86C22B7F8070006
:1043700043BA2846C4F87032FFF747FC002803DA36
:104380003046BDE8F08108E0B4F86402D4F8703239
:104390004343D4F81802984204D0202394F81D1205
:1043A0000522CBE74FF40070834200D3034601207F
:1043B0002072014604F11002284601F031FF00206E
:1043C000DFE72DE9F047D0F8BC4206461546207AD3
:1043D000894620B13046BDE8F047FFF77CBDD4F8F0
:1043E00018024FF0FF3818B194F81C02000607D5E8
:1043F00094F81D12202305223046FFF754FF2DE0CC
:10440000D6F8C002816848468847052708B13A2394
:1044100006E0D6F8C002C1684846884738B127236D
:10442000022249463046FFF73EFF277216E055F854
:10443000020F494600BA20F0FF02E8780243C4F8B0
:104440006C22686800BA20F0FF03E8790343304625
:10445000C4F87032FFF7D9FB002802DA4046BDE805
:10446000F087B4F86402D4F870324343D4F81802E9
:104470009842BDD14FF40070834200D3034601201F
:104480002072014604F11002304601F0C9FE0020FE
:10449000E5E70A6842624A688262D1E902231A4368
:1044A000D1E904310B43C16A1A4321F0F7011143EA
:1044B000C16200207047006800F0030070470844A4
:1044C0004069704770B50DF1100C11439CE8700005
:1044D0002343194329434268314347F6FF639A4314
:1044E0000A434260002070BD10B503210160022024
:1044F000FCF734FA002010BDD0F8800070470A683D
:104500008260D1E901231A43D1E903310B43C16829
:104510001A436FF30B011143C16000207047096813
:10452000C0F880100020704710B586B004463720D0
:10453000CDE9001040200290002003904FF48060ED
:10454000049069462046FFF7DAFF41F288323721AE
:10455000204600F0BDF906B010BD000010B50446BD
:104560000A4886B001432920CDE90010402002907E
:10457000002003904FF48060049069462046FFF7C6
:10458000BEFF204600F05CFA06B010BD00001080AF
:1045900010B586B004461020CDE9001040200290EE
:1045A000002003904FF48060049069462046FFF796
:1045B000A6FF41F288321021204600F089F906B0AA
:1045C00010BD10B586B004460620CDE9001040208D
:1045D0000290002003904FF48060049069462046CA
:1045E000FFF78DFF41F288320621204600F070F976
:1045F00006B010BD30B585B0002405460094019486
:104600004FF480600294CDE9034069462846FFF7E5
:1046100076FF0B484FF4FA510068B0FBF1F041F21D
:1046200088314843401E03D24FF0004005B030BDF2
:10463000696B0906F6D5C520A8632046F6E7000099
:104640009401002070B585B004464FF4D5700090F9
:1046500001A908204025002681E86100C0010490DE
:1046600069462046FFF74BFF12484FF4FA510068A5
:10467000B0FBF1F041F288314843401E03D24FF0C5
:10468000004005B070BD616B11F0450FF5D0090514
:10469000F3D4606B400701D5042003E0606BC007D2
:1046A00002D00120A063ECE7606B400600D5A56353
:1046B0003046E6E79401002010B586B0044612208B
:1046C000CDE9001040200290002003904FF480605C
:1046D000049069462046FFF712FF41F2883212210A
:1046E000204600F0F5F806B010BD10B586B00446BF
:1046F0001120CDE9001040200290002003904FF4DB
:104700008060049069462046FFF7F9FE41F2883246
:104710001121204600F0DCF806B010BD10B586B0BF
:1047200004460720CDE9002040200290002003909D
:104730004FF48060049069462046FFF7E0FE41F2A6
:1047400088320721204600F0C3F806B010BD10B52E
:1047500086B0044600210220CDE90010C020CDE93A
:1047600002014FF48060049069462046FFF7C7FEBF
:10477000204600F03DF906B010BD10B586B00446E5
:104780000920CDE90010C0200290002003904FF4D2
:104790008060049069462046FFF7B1FE204600F095
:1047A00027F906B010BD10B586B0044600213320AD
:1047B000CDE900104020CDE90201000104906946D6
:1047C0002046FFF79CFE41F288323321204600F05C
:1047D0007FF806B010BD10B586B004460D20CDE9B7
:1047E000001040200290002003904FF4806004905D
:1047F00069462046FFF783FE41F288320D212046AC
:1048000000F066F806B010BD30B585B00C46054620
:1048100000210320CDE900104020CDE90201000174
:10482000049069462846FFF76AFE2246032128467F
:1048300000F028F905B030BD10B586B0044600215F
:104840000C20CDE900104020CDE9020100010490C8
:1048500069462046FFF753FE034A0C21204600F02C
:1048600037F806B010BD000000E1F50510B586B0C0
:1048700004461920CDE9001040200290002003904A
:104880004FF48060049069462046FFF738FE41F2FD
:1048900088321921204600F01BF806B010BD10B573
:1048A00086B004461820CDE9001040200290002078
:1048B00003904FF48060049069462046FFF71FFE86
:1048C00041F288321821204600F002F806B010BDEF
:1048D000454B10B51B684FF4FA54B3FBF4F3534344
:1048E0005B1E02D24FF0004010BD426B12F0450F2C
:1048F000F6D01205F4D4426B520703D5042181632C
:10490000084610BD426BD20702D00121816305E049
:10491000C52282630269D2B28A4201D0012010BD51
:104920000021FFF7CCFD3149084201D1002010BD24
:10493000002802DA4FF0007010BD410001D5402080
:1049400010BD810001D5802010BDC10002D54FF4FB
:10495000807010BD010102D54FF4007010BD4101FF
:1049600002D54FF4806010BDC10102D54FF4006044
:1049700010BD010202D54FF4805010BD410202D596
:104980004FF4005010BD810202D54FF4804010BD9D
:10499000C10202D54FF4004010BD410302D54FF4CF
:1049A000003010BD810302D54FF4802010BDC1033B
:1049B00002D54FF4002010BD010402D54FF4801041
:1049C00010BD410402D54FF4001010BD810402D582
:1049D0004FF4800010BD000702D54FF4000010BD59
:1049E0004FF4803010BD00009401002008E0FFFD6E
:1049F00012494FF4FA520968B1FBF2F141F28832E0
:104A00005143491E02D24FF000407047426B12F0F2
:104A1000450FF6D01205F4D4416B490703D50421A4
:104A2000816308467047416BC90703D00121816348
:104A300008467047C521816300207047940100201B
:104A40000F494FF4FA520968B1FBF2F141F2883292
:104A50005143491E02D24FF000407047426B12F0A2
:104A6000450FF6D01205F4D4416B490703D5042154
:104A7000816308467047C5218163002070470000AC
:104A80009401002030B5204B4FF4FA541B68B3FB5F
:104A9000F4F341F2883463435B1E02D24FF00040CE
:104AA00030BD446B14F0450FF6D02405F4D4436BAD
:104AB0005B0703D504218163084630BD436BDB07E8
:104AC00002D00121816303E00369DBB28B4201D094
:104AD000012030BDC52181630021FFF7F0FC10F4F7
:104AE000604F04D0410406D54FF4005030BD000C97
:104AF0001080002030BD000402D54FF4805030BD3E
:104B00004FF4803030BD0000940100202DE9F04FBB
:104B100089B00D460446FCF753F8002683460096FC
:104B20000196374608212068FFF732FD002834D16E
:104B3000B4F8500001042068FFF7F6FC00282CD1DF
:104B4000401E4FF00808CDE9020830204FF002095E
:104B5000CDE904090120CDE9067002A92068FFF71C
:104B600098FC2068FFF71FFE002816D1EA4640F2A5
:104B70002A472068416B394212D1416B890204D522
:104B8000FFF7BAFC4AF82600761CFCF719F8A0EBF0
:104B90000B00401CEDD14FF0004009B0BDE8F08F94
:104BA000416B090703D5C0F838800820F5E7416B51
:104BB000890703D5C0F838900220EEE7416B8906DB
:104BC00003D5202181630846E7E740F23A5181632B
:104BD000019800BA2860009800BA68600020DCE7FD
:104BE00001460148FDF76CBBA0B0012010B5044898
:104BF000FDF778FB042801D0012010BD002010BD76
:104C0000A0B0012010B590B004460120ADF83800E6
:104C10002068FFF750FC002854D0606C032842D075
:104C20002068FFF794FD00284AD100212068FFF793
:104C300046FC606704212068FFF741FCA06708215B
:104C40002068FFF73CFCE0670C212068FFF737FC89
:104C5000C4F88000606C032825D00EA92068FFF7F7
:104C6000D3FD00282CD1606C03281CD0BDF838007F
:104C7000206501042068FFF780FD002820D1002175
:104C80002068FFF71CFC606604212068FFF717FC12
:104C9000A06608212068FFF712FCE0660C2120685E
:104CA000FFF70DFC206704212068FFF708FC000DCA
:104CB000E06403A92046FDF737FA30B14FF0805089
:104CC00010B010BD4FF08060FAE7B4F85000002338
:104CD00002042068FFF722FD0028F1D104F1100042
:104CE00007C88DE8070094E80F00FFF7EBFB0020F2
:104CF000E6E700002DE9F84F002604460096354609
:104D0000B0460068FFF776FC002827D12068FFF73F
:104D100099FC4FF0805B4FF001094FF6FF7748B1E7
:104D2000A6642068FFF766FC002817D1A06C012854
:104D300002D020E0C4F8489000212068FFF7F4FB7F
:104D400058B918E000212068FFF7EEFB002805D1D4
:104D500051462068FFF702FC10B15846BDE8F88FB5
:104D600000212068FFF7ABFB05464FEAD07800989A
:104D7000401C009002E0DFF82CA00098B84202D25C
:104D8000B8F1000FDED00098B84202D34FF0807027
:104D9000E4E7680002D5C4F8449000E066640020AF
:104DA000DCE70000000010C138B50C4C012383F390
:104DB000108813460A46014609480094FDF738FB5F
:104DC000054602E0641E00D20125FFF70FFF002810
:104DD000F8D180F31088284638BD000000E1F505C1
:104DE000A0B0012038B50C4C012383F31088134682
:104DF0000A46014609480094FDF716FC054602E004
:104E0000641E00D20125FFF7F1FE0028F8D180F3DF
:104E10001088284638BD000000E1F505A0B001204B
:104E200001B582B04FF47A700090012301AA02A963
:104E30000248FDF753FD9DF804000EBD44B101206A
:104E40000B4910B50A68136823F0400313600A6821
:104E500013684FF6C774234013600A68136803434E
:104E600013600868016841F04001016010BD000056
:104E700044B1012038B504461248134B0068B0FB1A
:104E8000F3F04FF47A73584300906068B0F5827F76
:104E90000DD10B46009200228021204600F016F82A
:104EA00070B1606D40F020006065032038BD00984F
:104EB00030B1401E009020688068C0430006F6D5DF
:104EC000002038BD9401002000366E012DE9F0412C
:104ED0001D4617460E460446DDF8188008E0681C9B
:104EE00006D0FBF76DFEA0EB0800A8420BD255B12F
:104EF0002068806836EA000030D00020B842EED149
:104F00000020BDE8F0812068416821F0E0014160A7
:104F10006068B0F5827F0BD1A068B0F5004F02D079
:104F2000B0F5806F04D12068016821F04001016074
:104F3000A06AB0F5005F09D12068016821F4005132
:104F400001602068016841F400510160012084F88B
:104F50005100002084F850000320D2E70120CDE763
:104F60004FF4007008604FF4C0401080002070477C
:104F700000207047002070470020704700207047D5
:104F800008464FF6FF7101EA432310B551021A4655
:104F900002F002FA002010BD08464FF6FF7101EA48
:104FA000432310B551021A4602F068FA002010BDE2
:104FB00070470178407841EA0020704710B586B00C
:104FC00014216846FBF746F910480024016841F0B7
:104FD000020101600068694600F0020005904FF48C
:104FE000C040CDE900040320CDE902400848FBF7AA
:104FF00001FD4FF4805000900120CDE90104694685
:105000000448FBF7F7FC06B010BD00003038024042
:1050100000040240000C0240034A52780AB100F03A
:1050200005B800F02FB9000010CC01202DE9F04F99
:105030008E46914907464FF480400860C2030A60DB
:1050400043100B60FD074FF0804401D0086000E082
:105050000C600A600B607D085FEAC57C01D00860C7
:1050600000E00C600A600B607E19BD085FEAC57C39
:1050700001D0086000E00C600A600B602E44FD085F
:105080005FEAC57C01D0086000E00C600A600B603C
:105090003544ED0701D0086000E00C600A600B6049
:1050A0000C600A600B60824608600A600B60DFF8E3
:1050B000CCB14FF08055CBF80050DFF8BC91A9F18E
:1050C0001809D9F8005025F04055C9F800500C6077
:1050D0006B48007D061E03D00A600B60401EFBD1AA
:1050E0000A60654D083D28680B60C0F380300A6097
:1050F000D5F800C00B60CCF3803C40EA4C000A605D
:10510000D5F800C00B60CCF3803C40EA8C0001284D
:1051100017D0022874D004287FD0213603D00A602B
:105120000B60761EFBD14FF48052CBF80020D9F8EB
:10513000003023F0405343F08053C9F800300C6036
:1051400095E0BF0732D54FF0000C664620270A6075
:10515000D5F800800B60C8F380384FEA5C0C4644F9
:105160004CEAC87C7F1EF2D10A602D680B6086EA8B
:105170009536F50700D00820BEF1000F01D0CEF81B
:1051800000C03F4D2D7D1DB10A600B606D1EFBD12F
:105190004FF48056CBF80060D9F8006026F04056F6
:1051A00046F08056C9F800600C602DE01EB10A6020
:1051B0000B60761EFAE74FF48056CBF80060D9F802
:1051C000006026F0405646F08056C9F800600C603A
:1051D0000026DEF800502027D44600BF5FEAC578DD
:1051E00002D0C1F800C000E00C600A600B602E44E1
:1051F0006D087F1EF2D1F50703D0C1F800C001E0B1
:105200000BE00C600A600B601D4D2D7A7DB30C60C5
:105210000A600B606D1EFBD129E0194D95F815C091
:10522000BCF1000F06D0BD0704D521250A600B6034
:105230006D1EFBD11EB10A600B60761EFAE74FF4BB
:105240008055CBF80050D9F8006026F0405646F063
:105250008056C9F800600C60BCF1000F07D0BD0794
:1052600005D40C6021240A600B60641EFBD1C1F8D8
:1052700000A0BDE8F08F000018040240180C0240A6
:1052800010CC01202DE9F34FF24A06464FF4804737
:1052900000201760FB031360EF4D69680C46641E25
:1052A000FDD14FF400541460A8460D466D1EFDD18B
:1052B0005FEAC67C4FF0804501D0176000E01560C2
:1052C00013608C46BCF1010CFCD11460C1468C46C5
:1052D000BCF1010CFCD100EB060C70085FEAC07851
:1052E00001D0176000E0156013608846B8F101082E
:1052F000FCD114604FEA0108B8F10108FCD18444E4
:10530000B0085FEAC07801D0176000E01560136054
:105310004FEA0108B8F10108FCD114604FEA010816
:10532000B8F10108FCD18444F0085FEAC07801D0EC
:10533000176000E0156013604FEA0108B8F101083A
:10534000FCD114604FEA0108B8F10108FCD16044B7
:10535000C00701D0176000E01560136048468C4616
:10536000BCF1010CFCD114604FEA010CBCF1010C42
:10537000FCD1156013608C46BCF1010CFCD11460AB
:105380004FEA010CBCF1010CFCD1BA461760136066
:105390000F467F1EFDD114600F467F1EFDD1DFF842
:1053A000BCE24FF0805CCEF800C0DFF8A8B2ABF1F1
:1053B000180BDBF800C02CF0405CCBF800C0A9460D
:1053C000156090F814C05FEA0C050AD013600F4610
:1053D0007F1EFDD114600F467F1EFDD1BCF1010C74
:1053E000F4D113600F467F1EFDD1DFF868C2ACF127
:1053F000080CDCF800701460C7F380374FEA01082E
:10540000B8F10108FCD113604FEA0108B8F10108B6
:10541000FCD1DCF800801460C8F380380846401ED8
:10542000FDD147EA480013600F467F1EFDD1894F2A
:10543000083F3F681460C7F380378C46BCF1010C0D
:10544000FCD140EA870001281ED0022876D004282B
:1054500074D0213509D013600E46761EFDD114603C
:105460000E46761EFDD16D1EF5D14FF48051CEF85B
:105470000010DBF8003023F0405343F08053CBF8AA
:105480000030C2F80090E1E0B6074CD54FF00008BC
:105490004646202713600D466D1EFDD16D4D083D1B
:1054A0002D681460C5F3803C0D466D1EFDD14FEA9A
:1054B0005805664445EACC787F1EEBD11360DFF8CF
:1054C00098C10D466D1EFDD1624D083D2D681746F1
:1054D000C5F380351460491EFDD16E40F10700D040
:1054E0000820019909B1C1F800809CF814605EB1F0
:1054F000DCF804103B600D466D1EFDD13C600D468E
:105500006D1EFDD1761EF5D14FF48051CEF80010FE
:10551000DBF8005025F0405545F08055CBF80050A1
:10552000C7F800903FE055B113600E46761EFDD1DE
:1055300014600E46761EFDD16D1EF4E744E04FF474
:105540008056CEF80060DBF8006026F0405646F04A
:105550008056CBF80060C2F80090019D00274FF004
:10556000200C2D68EE0701D0564600E04E4616602E
:1055700013600E46761EFDD114600E46761EFDD1D8
:105580002F446D08BCF1010CECD1FD0701D055464C
:1055900000E04D461560164613600D466D1EFDD1A8
:1055A0003460491EFDD12C490E7AEEB3C2F800904A
:1055B000496813600D466D1EFDD114600D466D1EC9
:1055C000FDD1761EF5D141E0234F97F81580B8F153
:1055D000000F0ED0B7070CD54FF0210C13600F460B
:1055E0007F1EFDD114600F467F1EFDD1BCF1010C62
:1055F000F4D14DB113600F467F1EFDD114600F46EC
:105600007F1EFDD16D1EF4E74FF48055CEF800509B
:10561000DBF8007027F0405747F08057CBF8007058
:105620004D46C2F8009000E010E0B8F1000F0DD038
:10563000B6070BD41560212613600D466D1EFDD1F3
:1056400014600D466D1EFDD1761EF5D1C2F800A086
:10565000BDE8FC8F1804024010CC0120180C024059
:1056600070B5124A00252C460F4E526819E014B945
:1056700011F8015B0824EB0702D04FF4804301E0EE
:105680004FF0804333604FF00053336013465B1E8E
:10569000FDD14FF40053336013465B1EFDD16D08FE
:1056A000641E401EE3D270BD1804024010CC0120DD
:1056B000FBF78CBA30B597B030216846FAF7CAFDCF
:1056C00014210CA8FAF7C6FD00252648119512955D
:1056D00013951495016841F080510160006800F055
:1056E000805015902048016841F4804101600068B5
:1056F000022400F480401590092000904FF480307F
:1057000001900120CDE90504800507900420089050
:10571000A820CDE9090407200B906846FCF72EF974
:1057200008B172B6FEE70CA90F2081E831004FF4F2
:10573000A0500F904FF48050109005210CA8FCF75A
:105740002DF808B172B6FEE74FF400701490119472
:1057500011A8FBF785FF002801D072B6FEE717B04D
:1057600030BD00004038024000700040054801682C
:1057700041F47001016003494FF000608039086016
:105780007047000088ED00E0F0B50268254C264D1A
:10579000264E274F274B4FF0804CA04209D0604542
:1057A00007D0A84205D0B04203D0B84201D09842F9
:1057B00004D122F0700E4A6842EA0E02A0421BD0C9
:1057C000604519D0A84217D0B04215D0B84213D0C6
:1057D000984211D0184DA8420ED0184DA8420BD0B7
:1057E000174DA84208D0174DA84205D0164DA84223
:1057F00002D0164DA84203D122F44075CA682A434C
:105800004D6922F080022A4302608A68C2620A68F7
:105810008262A04201D0984201D10969016301214D
:105820004161F0BD0000014000040040000800405C
:10583000000C0040000401400040014000440140D1
:105840000048014000180040001C004000200040BB
:1058500010B501F01F030121046A99408C430462D2
:10586000016A9A401143016210BD10B5846842EA92
:10587000032224F47F440A432243826010BD8268DD
:1058800022F070020A4342F0070181607047000075
:10589000F0B5026A22F001020262036A426884697A
:1058A000124E24F073050C682C4323F002058B681C
:1058B0002B430D4DA84201D0B04205D123F008077B
:1058C000CB683B4323F00403A84201D0B04205D18A
:1058D0004D6922F4407215438A692A43426084610B
:1058E000496841630362F0BD0000014000040140CB
:1058F000F0B5026A22F010020262026A436884690B
:105900000D6824F4E64444EA05248D6822F0200260
:1059100042EA05120F4D104EA84201D0B04206D106
:10592000CF6822F0800242EA071222F04002A84229
:1059300001D0B04207D14D6923F4406343EA8503A7
:105940008D6943EA8503436084614968816302622B
:10595000F0BD00000000014000040140F0B5026A03
:1059600022F480720262026A4368C46922F40072FF
:1059700024F073050C68124E2C438D6842EA052210
:105980000E4DA84201D0B04206D1CF6822F4006289
:1059900042EA072222F48062A84201D0B04207D135
:1059A0004D6923F4405343EA05138D6943EA051317
:1059B0004360C4614968C1630262F0BD00000140F8
:1059C0000004014030B5026A22F480520262046A87
:1059D0004268C3690D6823F4E64343EA05238D68F2
:1059E00024F4005444EA0534084DA84202D0084D7E
:1059F000A84204D14D6922F4804242EA85124260F5
:105A0000C36149680164046230BD000000000140C8
:105A10000004014010B5036A046A24F00104046222
:105A2000846924F0F00444EA021423F00A020A43D1
:105A30008461026210BD10B5036A23F01003036293
:105A40008369046A23F4704343EA023224F0A0031A
:105A500043EA01118261016210BD10B5806B002123
:105A6000C185C184FDF71EFA10BD0168CA6822F421
:105A70009072CA6001684A6922F001024A612021DD
:105A800080F83A10704710B590F83A10222901D0EA
:105A9000022010BD8168B1F5805F11D00169002935
:105AA00001681FD0496801F07F03816A4A1C826245
:105AB0000B70C18D491E0904090CC18518D02BE05B
:105AC0000269816A002A0268526805D0D2B20A804F
:105AD000816A491C8162ECE7C2F308020A80816A8C
